{
  "_format": "hh-sol-artifact-1",
  "contractName": "C3RewardsRegistry",
  "sourceName": "contracts/C3RewardsRegistry.sol",
  "abi": [
    {
      "inputs": [
        {
          "internalType": "contract IWorldID",
          "name": "_worldId",
          "type": "address"
        },
        {
          "internalType": "string",
          "name": "_appId",
          "type": "string"
        },
        {
          "internalType": "string",
          "name": "_actionId",
          "type": "string"
        }
      ],
      "stateMutability": "nonpayable",
      "type": "constructor"
    },
    {
      "inputs": [],
      "name": "InvalidNullifier",
      "type": "error"
    },
    {
      "inputs": [
        {
          "internalType": "uint256",
          "name": "",
          "type": "uint256"
        }
      ],
      "name": "allReceivers",
      "outputs": [
        {
          "internalType": "address",
          "name": "",
          "type": "address"
        }
      ],
      "stateMutability": "view",
      "type": "function"
    },
    {
      "inputs": [],
      "name": "getAllRegisters",
      "outputs": [
        {
          "internalType": "address[]",
          "name": "",
          "type": "address[]"
        }
      ],
      "stateMutability": "view",
      "type": "function"
    },
    {
      "inputs": [
        {
          "internalType": "address",
          "name": "receiver",
          "type": "address"
        },
        {
          "internalType": "bool",
          "name": "shouldReceive",
          "type": "bool"
        }
      ],
      "name": "mockRegister",
      "outputs": [],
      "stateMutability": "nonpayable",
      "type": "function"
    },
    {
      "inputs": [
        {
          "internalType": "address",
          "name": "receiver",
          "type": "address"
        },
        {
          "internalType": "address",
          "name": "signal",
          "type": "address"
        },
        {
          "internalType": "uint256",
          "name": "root",
          "type": "uint256"
        },
        {
          "internalType": "uint256",
          "name": "nullifierHash",
          "type": "uint256"
        },
        {
          "internalType": "uint256[8]",
          "name": "proof",
          "type": "uint256[8]"
        }
      ],
      "name": "registerContract",
      "outputs": [],
      "stateMutability": "nonpayable",
      "type": "function"
    },
    {
      "inputs": [
        {
          "internalType": "address",
          "name": "",
          "type": "address"
        }
      ],
      "name": "rewardReceivers",
      "outputs": [
        {
          "internalType": "bool",
          "name": "",
          "type": "bool"
        }
      ],
      "stateMutability": "view",
      "type": "function"
    }
  ],
  "bytecode": "0x60e0604052600160c0908152503480156200001957600080fd5b50604051620012023803806200120283398181016040528101906200003f919062000341565b8273ffffffffffffffffffffffffffffffffffffffff1660808173ffffffffffffffffffffffffffffffffffffffff1681525050620000e2620000ae836040516020016200008e919062000428565b604051602081830303815290604052620000f260201b620006931760201c565b82604051602001620000c292919062000470565b604051602081830303815290604052620000f260201b620006931760201c565b60a0818152505050505062000502565b6000600882604051602001620001099190620004e9565b6040516020818303038152906040528051906020012060001c901c9050919050565b6000604051905090565b600080fd5b600080fd5b600073ffffffffffffffffffffffffffffffffffffffff82169050919050565b60006200016c826200013f565b9050919050565b600062000180826200015f565b9050919050565b620001928162000173565b81146200019e57600080fd5b50565b600081519050620001b28162000187565b92915050565b600080fd5b600080fd5b6000601f19601f8301169050919050565b7f4e487b7100000000000000000000000000000000000000000000000000000000600052604160045260246000fd5b6200020d82620001c2565b810181811067ffffffffffffffff821117156200022f576200022e620001d3565b5b80604052505050565b6000620002446200012b565b905062000252828262000202565b919050565b600067ffffffffffffffff821115620002755762000274620001d3565b5b6200028082620001c2565b9050602081019050919050565b60005b83811015620002ad57808201518184015260208101905062000290565b83811115620002bd576000848401525b50505050565b6000620002da620002d48462000257565b62000238565b905082815260208101848484011115620002f957620002f8620001bd565b5b620003068482856200028d565b509392505050565b600082601f830112620003265762000325620001b8565b5b815162000338848260208601620002c3565b91505092915050565b6000806000606084860312156200035d576200035c62000135565b5b60006200036d86828701620001a1565b935050602084015167ffffffffffffffff8111156200039157620003906200013a565b5b6200039f868287016200030e565b925050604084015167ffffffffffffffff811115620003c357620003c26200013a565b5b620003d1868287016200030e565b9150509250925092565b600081519050919050565b600081905092915050565b6000620003fe82620003db565b6200040a8185620003e6565b93506200041c8185602086016200028d565b80840191505092915050565b6000620004368284620003f1565b915081905092915050565b6000819050919050565b6000819050919050565b6200046a620004648262000441565b6200044b565b82525050565b60006200047e828562000455565b602082019150620004908284620003f1565b91508190509392505050565b600081519050919050565b600081905092915050565b6000620004bf826200049c565b620004cb8185620004a7565b9350620004dd8185602086016200028d565b80840191505092915050565b6000620004f78284620004b2565b915081905092915050565b60805160a05160c051610cd06200053260003960006104eb01526000610535015260006104ae0152610cd06000f3fe608060405234801561001057600080fd5b50600436106100575760003560e01c8063301f33a01461005c57806362f991491461008c5780637687c0e0146100aa57806380c3f418146100da578063bd78048d146100f6575b600080fd5b61007660048036038101906100719190610705565b610112565b6040516100839190610773565b60405180910390f35b610094610151565b6040516100a1919061084c565b60405180910390f35b6100c460048036038101906100bf919061089a565b6101df565b6040516100d191906108e2565b60405180910390f35b6100f460048036038101906100ef9190610929565b6101ff565b005b610110600480360381019061010b9190610990565b610454565b005b6001818154811061012257600080fd5b906000526020600020016000915054906101000a900473ffffffffffffffffffffffffffffffffffffffff1681565b606060018054806020026020016040519081016040528092919081815260200182805480156101d557602002820191906000526020600020905b8160009054906101000a900473ffffffffffffffffffffffffffffffffffffffff1673ffffffffffffffffffffffffffffffffffffffff168152602001906001019080831161018b575b5050505050905090565b60006020528060005260406000206000915054906101000a900460ff1681565b801561026d576001829080600181540180825580915050600190039060005260206000200160009091909190916101000a81548173ffffffffffffffffffffffffffffffffffffffff021916908373ffffffffffffffffffffffffffffffffffffffff1602179055506103fa565b6000805b600180549050811015610306576001818154811061029257610291610a0c565b5b9060005260206000200160009054906101000a900473ffffffffffffffffffffffffffffffffffffffff1673ffffffffffffffffffffffffffffffffffffffff168473ffffffffffffffffffffffffffffffffffffffff16036102f3578091505b80806102fe90610a6a565b915050610271565b5060018080805490506103199190610ab2565b8154811061032a57610329610a0c565b5b9060005260206000200160009054906101000a900473ffffffffffffffffffffffffffffffffffffffff166001828154811061036957610368610a0c565b5b9060005260206000200160006101000a81548173ffffffffffffffffffffffffffffffffffffffff021916908373ffffffffffffffffffffffffffffffffffffffff16021790555060018054806103c3576103c2610ae6565b5b6001900381819060005260206000200160006101000a81549073ffffffffffffffffffffffffffffffffffffffff02191690559055505b806000808473ffffffffffffffffffffffffffffffffffffffff1673ffffffffffffffffffffffffffffffffffffffff16815260200190815260200160002060006101000a81548160ff0219169083151502179055505050565b6002600083815260200190815260200160002060009054906101000a900460ff16156104ac576040517f5d904cb200000000000000000000000000000000000000000000000000000000815260040160405180910390fd5b7f000000000000000000000000000000000000000000000000000000000000000073ffffffffffffffffffffffffffffffffffffffff16633bc778e3847f00000000000000000000000000000000000000000000000000000000000000006105328860405160200161051e9190610b5d565b604051602081830303815290604052610693565b867f0000000000000000000000000000000000000000000000000000000000000000876040518763ffffffff1660e01b815260040161057696959493929190610ba7565b60006040518083038186803b15801561058e57600080fd5b505afa1580156105a2573d6000803e3d6000fd5b5050505060016002600084815260200190815260200160002060006101000a81548160ff02191690831515021790555060016000808773ffffffffffffffffffffffffffffffffffffffff1673ffffffffffffffffffffffffffffffffffffffff16815260200190815260200160002060006101000a81548160ff0219169083151502179055506001859080600181540180825580915050600190039060005260206000200160009091909190916101000a81548173ffffffffffffffffffffffffffffffffffffffff021916908373ffffffffffffffffffffffffffffffffffffffff1602179055505050505050565b60006008826040516020016106a89190610c83565b6040516020818303038152906040528051906020012060001c901c9050919050565b600080fd5b6000819050919050565b6106e2816106cf565b81146106ed57600080fd5b50565b6000813590506106ff816106d9565b92915050565b60006020828403121561071b5761071a6106ca565b5b6000610729848285016106f0565b91505092915050565b600073ffffffffffffffffffffffffffffffffffffffff82169050919050565b600061075d82610732565b9050919050565b61076d81610752565b82525050565b60006020820190506107886000830184610764565b92915050565b600081519050919050565b600082825260208201905092915050565b6000819050602082019050919050565b6107c381610752565b82525050565b60006107d583836107ba565b60208301905092915050565b6000602082019050919050565b60006107f98261078e565b6108038185610799565b935061080e836107aa565b8060005b8381101561083f57815161082688826107c9565b9750610831836107e1565b925050600181019050610812565b5085935050505092915050565b6000602082019050818103600083015261086681846107ee565b905092915050565b61087781610752565b811461088257600080fd5b50565b6000813590506108948161086e565b92915050565b6000602082840312156108b0576108af6106ca565b5b60006108be84828501610885565b91505092915050565b60008115159050919050565b6108dc816108c7565b82525050565b60006020820190506108f760008301846108d3565b92915050565b610906816108c7565b811461091157600080fd5b50565b600081359050610923816108fd565b92915050565b600080604083850312156109405761093f6106ca565b5b600061094e85828601610885565b925050602061095f85828601610914565b9150509250929050565b600080fd5b60008190508260206008028201111561098a57610989610969565b5b92915050565b600080600080600061018086880312156109ad576109ac6106ca565b5b60006109bb88828901610885565b95505060206109cc88828901610885565b94505060406109dd888289016106f0565b93505060606109ee888289016106f0565b92505060806109ff8882890161096e565b9150509295509295909350565b7f4e487b7100000000000000000000000000000000000000000000000000000000600052603260045260246000fd5b7f4e487b7100000000000000000000000000000000000000000000000000000000600052601160045260246000fd5b6000610a75826106cf565b91507fffffffffffffffffffffffffffffffffffffffffffffffffffffffffffffffff8203610aa757610aa6610a3b565b5b600182019050919050565b6000610abd826106cf565b9150610ac8836106cf565b925082821015610adb57610ada610a3b565b5b828203905092915050565b7f4e487b7100000000000000000000000000000000000000000000000000000000600052603160045260246000fd5b60008160601b9050919050565b6000610b2d82610b15565b9050919050565b6000610b3f82610b22565b9050919050565b610b57610b5282610752565b610b34565b82525050565b6000610b698284610b46565b60148201915081905092915050565b610b81816106cf565b82525050565b82818337600083830152505050565b610ba36101008383610b87565b5050565b60006101a082019050610bbd6000830189610b78565b610bca6020830188610b78565b610bd76040830187610b78565b610be46060830186610b78565b610bf16080830185610b78565b610bfe60a0830184610b96565b979650505050505050565b600081519050919050565b600081905092915050565b60005b83811015610c3d578082015181840152602081019050610c22565b83811115610c4c576000848401525b50505050565b6000610c5d82610c09565b610c678185610c14565b9350610c77818560208601610c1f565b80840191505092915050565b6000610c8f8284610c52565b91508190509291505056fea2646970667358221220d38097f20f272eddc7e0e2763730ea1443f94446392037cffa4e480a3c6bb18964736f6c634300080d0033",
  "linkReferences": {},
  "deployedLinkReferences": {}
}