{
  "_format": "hh-sol-artifact-1",
  "contractName": "MockERC20",
  "sourceName": "contracts/MockERC20.sol",
  "abi": [
    {
      "inputs": [
        {
          "internalType": "address",
          "name": "_feeReceiver",
          "type": "address"
        }
      ],
      "stateMutability": "nonpayable",
      "type": "constructor"
    },
    {
      "anonymous": false,
      "inputs": [
        {
          "indexed": true,
          "internalType": "address",
          "name": "owner",
          "type": "address"
        },
        {
          "indexed": true,
          "internalType": "address",
          "name": "spender",
          "type": "address"
        },
        {
          "indexed": false,
          "internalType": "uint256",
          "name": "value",
          "type": "uint256"
        }
      ],
      "name": "Approval",
      "type": "event"
    },
    {
      "anonymous": false,
      "inputs": [
        {
          "indexed": false,
          "internalType": "address",
          "name": "caller",
          "type": "address"
        },
        {
          "indexed": false,
          "internalType": "uint256",
          "name": "value",
          "type": "uint256"
        }
      ],
      "name": "JustEvent",
      "type": "event"
    },
    {
      "anonymous": false,
      "inputs": [
        {
          "indexed": true,
          "internalType": "address",
          "name": "from",
          "type": "address"
        },
        {
          "indexed": true,
          "internalType": "address",
          "name": "to",
          "type": "address"
        },
        {
          "indexed": false,
          "internalType": "uint256",
          "name": "value",
          "type": "uint256"
        }
      ],
      "name": "Transfer",
      "type": "event"
    },
    {
      "inputs": [],
      "name": "_REWARD_SLOT",
      "outputs": [
        {
          "internalType": "bytes32",
          "name": "",
          "type": "bytes32"
        }
      ],
      "stateMutability": "view",
      "type": "function"
    },
    {
      "inputs": [
        {
          "internalType": "address",
          "name": "owner",
          "type": "address"
        },
        {
          "internalType": "address",
          "name": "spender",
          "type": "address"
        }
      ],
      "name": "allowance",
      "outputs": [
        {
          "internalType": "uint256",
          "name": "",
          "type": "uint256"
        }
      ],
      "stateMutability": "view",
      "type": "function"
    },
    {
      "inputs": [
        {
          "internalType": "address",
          "name": "spender",
          "type": "address"
        },
        {
          "internalType": "uint256",
          "name": "amount",
          "type": "uint256"
        }
      ],
      "name": "approve",
      "outputs": [
        {
          "internalType": "bool",
          "name": "",
          "type": "bool"
        }
      ],
      "stateMutability": "nonpayable",
      "type": "function"
    },
    {
      "inputs": [
        {
          "internalType": "address",
          "name": "account",
          "type": "address"
        }
      ],
      "name": "balanceOf",
      "outputs": [
        {
          "internalType": "uint256",
          "name": "",
          "type": "uint256"
        }
      ],
      "stateMutability": "view",
      "type": "function"
    },
    {
      "inputs": [],
      "name": "decimals",
      "outputs": [
        {
          "internalType": "uint8",
          "name": "",
          "type": "uint8"
        }
      ],
      "stateMutability": "view",
      "type": "function"
    },
    {
      "inputs": [
        {
          "internalType": "address",
          "name": "spender",
          "type": "address"
        },
        {
          "internalType": "uint256",
          "name": "subtractedValue",
          "type": "uint256"
        }
      ],
      "name": "decreaseAllowance",
      "outputs": [
        {
          "internalType": "bool",
          "name": "",
          "type": "bool"
        }
      ],
      "stateMutability": "nonpayable",
      "type": "function"
    },
    {
      "inputs": [],
      "name": "getFeeReceiver",
      "outputs": [
        {
          "internalType": "address",
          "name": "",
          "type": "address"
        }
      ],
      "stateMutability": "view",
      "type": "function"
    },
    {
      "inputs": [
        {
          "internalType": "address",
          "name": "spender",
          "type": "address"
        },
        {
          "internalType": "uint256",
          "name": "addedValue",
          "type": "uint256"
        }
      ],
      "name": "increaseAllowance",
      "outputs": [
        {
          "internalType": "bool",
          "name": "",
          "type": "bool"
        }
      ],
      "stateMutability": "nonpayable",
      "type": "function"
    },
    {
      "inputs": [
        {
          "internalType": "address",
          "name": "receiver",
          "type": "address"
        },
        {
          "internalType": "uint256",
          "name": "amount",
          "type": "uint256"
        }
      ],
      "name": "mint",
      "outputs": [],
      "stateMutability": "nonpayable",
      "type": "function"
    },
    {
      "inputs": [],
      "name": "name",
      "outputs": [
        {
          "internalType": "string",
          "name": "",
          "type": "string"
        }
      ],
      "stateMutability": "view",
      "type": "function"
    },
    {
      "inputs": [],
      "name": "normalCall",
      "outputs": [],
      "stateMutability": "payable",
      "type": "function"
    },
    {
      "inputs": [],
      "name": "symbol",
      "outputs": [
        {
          "internalType": "string",
          "name": "",
          "type": "string"
        }
      ],
      "stateMutability": "view",
      "type": "function"
    },
    {
      "inputs": [],
      "name": "totalSupply",
      "outputs": [
        {
          "internalType": "uint256",
          "name": "",
          "type": "uint256"
        }
      ],
      "stateMutability": "view",
      "type": "function"
    },
    {
      "inputs": [
        {
          "internalType": "address",
          "name": "to",
          "type": "address"
        },
        {
          "internalType": "uint256",
          "name": "amount",
          "type": "uint256"
        }
      ],
      "name": "transfer",
      "outputs": [
        {
          "internalType": "bool",
          "name": "",
          "type": "bool"
        }
      ],
      "stateMutability": "nonpayable",
      "type": "function"
    },
    {
      "inputs": [
        {
          "internalType": "address",
          "name": "from",
          "type": "address"
        },
        {
          "internalType": "address",
          "name": "to",
          "type": "address"
        },
        {
          "internalType": "uint256",
          "name": "amount",
          "type": "uint256"
        }
      ],
      "name": "transferFrom",
      "outputs": [
        {
          "internalType": "bool",
          "name": "",
          "type": "bool"
        }
      ],
      "stateMutability": "nonpayable",
      "type": "function"
    }
  ],
  "bytecode": "0x60806040523480156200001157600080fd5b50604051620019e5380380620019e583398181016040528101906200003791906200027a565b6040518060400160405280600981526020017f4d6f636b546f6b656e00000000000000000000000000000000000000000000008152506040518060400160405280600281526020017f4d540000000000000000000000000000000000000000000000000000000000008152508160039080519060200190620000bb92919062000160565b508060049080519060200190620000d492919062000160565b505050806200010e7faff62a0cf49874a36d0a85daefe218a96fb244237d0298fc69e150888d5b5c846200015660201b620007b71760201c565b60000160006101000a81548173ffffffffffffffffffffffffffffffffffffffff021916908373ffffffffffffffffffffffffffffffffffffffff1602179055505062000310565b6000819050919050565b8280546200016e90620002db565b90600052602060002090601f016020900481019282620001925760008555620001de565b82601f10620001ad57805160ff1916838001178555620001de565b82800160010185558215620001de579182015b82811115620001dd578251825591602001919060010190620001c0565b5b509050620001ed9190620001f1565b5090565b5b808211156200020c576000816000905550600101620001f2565b5090565b600080fd5b600073ffffffffffffffffffffffffffffffffffffffff82169050919050565b6000620002428262000215565b9050919050565b620002548162000235565b81146200026057600080fd5b50565b600081519050620002748162000249565b92915050565b60006020828403121562000293576200029262000210565b5b6000620002a38482850162000263565b91505092915050565b7f4e487b7100000000000000000000000000000000000000000000000000000000600052602260045260246000fd5b60006002820490506001821680620002f457607f821691505b6020821081036200030a5762000309620002ac565b5b50919050565b6116c580620003206000396000f3fe6080604052600436106100e85760003560e01c80633a7bf5851161008a578063a457c2d711610059578063a457c2d7146102eb578063a9059cbb14610328578063dd62ed3e14610365578063e8a35392146103a2576100e8565b80633a7bf5851461022f57806340c10f191461025a57806370a082311461028357806395d89b41146102c0576100e8565b806323b872dd116100c657806323b872dd14610180578063313ce567146101bd57806333d15b2e146101e857806339509351146101f2576100e8565b806306fdde03146100ed578063095ea7b31461011857806318160ddd14610155575b600080fd5b3480156100f957600080fd5b506101026103cd565b60405161010f9190610e8d565b60405180910390f35b34801561012457600080fd5b5061013f600480360381019061013a9190610f48565b61045f565b60405161014c9190610fa3565b60405180910390f35b34801561016157600080fd5b5061016a610482565b6040516101779190610fcd565b60405180910390f35b34801561018c57600080fd5b506101a760048036038101906101a29190610fe8565b61048c565b6040516101b49190610fa3565b60405180910390f35b3480156101c957600080fd5b506101d26104bb565b6040516101df9190611057565b60405180910390f35b6101f06104c4565b005b3480156101fe57600080fd5b5061021960048036038101906102149190610f48565b6104ff565b6040516102269190610fa3565b60405180910390f35b34801561023b57600080fd5b50610244610536565b604051610251919061108b565b60405180910390f35b34801561026657600080fd5b50610281600480360381019061027c9190610f48565b61055a565b005b34801561028f57600080fd5b506102aa60048036038101906102a591906110a6565b610568565b6040516102b79190610fcd565b60405180910390f35b3480156102cc57600080fd5b506102d56105b0565b6040516102e29190610e8d565b60405180910390f35b3480156102f757600080fd5b50610312600480360381019061030d9190610f48565b610642565b60405161031f9190610fa3565b60405180910390f35b34801561033457600080fd5b5061034f600480360381019061034a9190610f48565b6106b9565b60405161035c9190610fa3565b60405180910390f35b34801561037157600080fd5b5061038c600480360381019061038791906110d3565b6106dc565b6040516103999190610fcd565b60405180910390f35b3480156103ae57600080fd5b506103b7610763565b6040516103c49190611122565b60405180910390f35b6060600380546103dc9061116c565b80601f01602080910402602001604051908101604052809291908181526020018280546104089061116c565b80156104555780601f1061042a57610100808354040283529160200191610455565b820191906000526020600020905b81548152906001019060200180831161043857829003601f168201915b5050505050905090565b60008061046a6107c1565b90506104778185856107c9565b600191505092915050565b6000600254905090565b6000806104976107c1565b90506104a4858285610992565b6104af858585610a1e565b60019150509392505050565b60006006905090565b7f8919065d1607027f26da4ac4c4b685a3a87bced835b4a7908bb801e51e8a527533346040516104f592919061119d565b60405180910390a1565b60008061050a6107c1565b905061052b81858561051c85896106dc565b61052691906111f5565b6107c9565b600191505092915050565b7faff62a0cf49874a36d0a85daefe218a96fb244237d0298fc69e150888d5b5c8481565b6105648282610c94565b5050565b60008060008373ffffffffffffffffffffffffffffffffffffffff1673ffffffffffffffffffffffffffffffffffffffff168152602001908152602001600020549050919050565b6060600480546105bf9061116c565b80601f01602080910402602001604051908101604052809291908181526020018280546105eb9061116c565b80156106385780601f1061060d57610100808354040283529160200191610638565b820191906000526020600020905b81548152906001019060200180831161061b57829003601f168201915b5050505050905090565b60008061064d6107c1565b9050600061065b82866106dc565b9050838110156106a0576040517f08c379a0000000000000000000000000000000000000000000000000000000008152600401610697906112bd565b60405180910390fd5b6106ad82868684036107c9565b60019250505092915050565b6000806106c46107c1565b90506106d1818585610a1e565b600191505092915050565b6000600160008473ffffffffffffffffffffffffffffffffffffffff1673ffffffffffffffffffffffffffffffffffffffff16815260200190815260200160002060008373ffffffffffffffffffffffffffffffffffffffff1673ffffffffffffffffffffffffffffffffffffffff16815260200190815260200160002054905092915050565b600061078e7faff62a0cf49874a36d0a85daefe218a96fb244237d0298fc69e150888d5b5c846107b7565b60000160009054906101000a900473ffffffffffffffffffffffffffffffffffffffff16905090565b6000819050919050565b600033905090565b600073ffffffffffffffffffffffffffffffffffffffff168373ffffffffffffffffffffffffffffffffffffffff1603610838576040517f08c379a000000000000000000000000000000000000000000000000000000000815260040161082f9061134f565b60405180910390fd5b600073ffffffffffffffffffffffffffffffffffffffff168273ffffffffffffffffffffffffffffffffffffffff16036108a7576040517f08c379a000000000000000000000000000000000000000000000000000000000815260040161089e906113e1565b60405180910390fd5b80600160008573ffffffffffffffffffffffffffffffffffffffff1673ffffffffffffffffffffffffffffffffffffffff16815260200190815260200160002060008473ffffffffffffffffffffffffffffffffffffffff1673ffffffffffffffffffffffffffffffffffffffff168152602001908152602001600020819055508173ffffffffffffffffffffffffffffffffffffffff168373ffffffffffffffffffffffffffffffffffffffff167f8c5be1e5ebec7d5bd14f71427d1e84f3dd0314c0f7b2291e5b200ac8c7c3b925836040516109859190610fcd565b60405180910390a3505050565b600061099e84846106dc565b90507fffffffffffffffffffffffffffffffffffffffffffffffffffffffffffffffff8114610a185781811015610a0a576040517f08c379a0000000000000000000000000000000000000000000000000000000008152600401610a019061144d565b60405180910390fd5b610a1784848484036107c9565b5b50505050565b600073ffffffffffffffffffffffffffffffffffffffff168373ffffffffffffffffffffffffffffffffffffffff1603610a8d576040517f08c379a0000000000000000000000000000000000000000000000000000000008152600401610a84906114df565b60405180910390fd5b600073ffffffffffffffffffffffffffffffffffffffff168273ffffffffffffffffffffffffffffffffffffffff1603610afc576040517f08c379a0000000000000000000000000000000000000000000000000000000008152600401610af390611571565b60405180910390fd5b610b07838383610dea565b60008060008573ffffffffffffffffffffffffffffffffffffffff1673ffffffffffffffffffffffffffffffffffffffff16815260200190815260200160002054905081811015610b8d576040517f08c379a0000000000000000000000000000000000000000000000000000000008152600401610b8490611603565b60405180910390fd5b8181036000808673ffffffffffffffffffffffffffffffffffffffff1673ffffffffffffffffffffffffffffffffffffffff16815260200190815260200160002081905550816000808573ffffffffffffffffffffffffffffffffffffffff1673ffffffffffffffffffffffffffffffffffffffff168152602001908152602001600020600082825401925050819055508273ffffffffffffffffffffffffffffffffffffffff168473ffffffffffffffffffffffffffffffffffffffff167fddf252ad1be2c89b69c2b068fc378daa952ba7f163c4a11628f55a4df523b3ef84604051610c7b9190610fcd565b60405180910390a3610c8e848484610def565b50505050565b600073ffffffffffffffffffffffffffffffffffffffff168273ffffffffffffffffffffffffffffffffffffffff1603610d03576040517f08c379a0000000000000000000000000000000000000000000000000000000008152600401610cfa9061166f565b60405180910390fd5b610d0f60008383610dea565b8060026000828254610d2191906111f5565b92505081905550806000808473ffffffffffffffffffffffffffffffffffffffff1673ffffffffffffffffffffffffffffffffffffffff168152602001908152602001600020600082825401925050819055508173ffffffffffffffffffffffffffffffffffffffff16600073ffffffffffffffffffffffffffffffffffffffff167fddf252ad1be2c89b69c2b068fc378daa952ba7f163c4a11628f55a4df523b3ef83604051610dd29190610fcd565b60405180910390a3610de660008383610def565b5050565b505050565b505050565b600081519050919050565b600082825260208201905092915050565b60005b83811015610e2e578082015181840152602081019050610e13565b83811115610e3d576000848401525b50505050565b6000601f19601f8301169050919050565b6000610e5f82610df4565b610e698185610dff565b9350610e79818560208601610e10565b610e8281610e43565b840191505092915050565b60006020820190508181036000830152610ea78184610e54565b905092915050565b600080fd5b600073ffffffffffffffffffffffffffffffffffffffff82169050919050565b6000610edf82610eb4565b9050919050565b610eef81610ed4565b8114610efa57600080fd5b50565b600081359050610f0c81610ee6565b92915050565b6000819050919050565b610f2581610f12565b8114610f3057600080fd5b50565b600081359050610f4281610f1c565b92915050565b60008060408385031215610f5f57610f5e610eaf565b5b6000610f6d85828601610efd565b9250506020610f7e85828601610f33565b9150509250929050565b60008115159050919050565b610f9d81610f88565b82525050565b6000602082019050610fb86000830184610f94565b92915050565b610fc781610f12565b82525050565b6000602082019050610fe26000830184610fbe565b92915050565b60008060006060848603121561100157611000610eaf565b5b600061100f86828701610efd565b935050602061102086828701610efd565b925050604061103186828701610f33565b9150509250925092565b600060ff82169050919050565b6110518161103b565b82525050565b600060208201905061106c6000830184611048565b92915050565b6000819050919050565b61108581611072565b82525050565b60006020820190506110a0600083018461107c565b92915050565b6000602082840312156110bc576110bb610eaf565b5b60006110ca84828501610efd565b91505092915050565b600080604083850312156110ea576110e9610eaf565b5b60006110f885828601610efd565b925050602061110985828601610efd565b9150509250929050565b61111c81610ed4565b82525050565b60006020820190506111376000830184611113565b92915050565b7f4e487b7100000000000000000000000000000000000000000000000000000000600052602260045260246000fd5b6000600282049050600182168061118457607f821691505b6020821081036111975761119661113d565b5b50919050565b60006040820190506111b26000830185611113565b6111bf6020830184610fbe565b9392505050565b7f4e487b7100000000000000000000000000000000000000000000000000000000600052601160045260246000fd5b600061120082610f12565b915061120b83610f12565b9250827fffffffffffffffffffffffffffffffffffffffffffffffffffffffffffffffff038211156112405761123f6111c6565b5b828201905092915050565b7f45524332303a2064656372656173656420616c6c6f77616e63652062656c6f7760008201527f207a65726f000000000000000000000000000000000000000000000000000000602082015250565b60006112a7602583610dff565b91506112b28261124b565b604082019050919050565b600060208201905081810360008301526112d68161129a565b9050919050565b7f45524332303a20617070726f76652066726f6d20746865207a65726f2061646460008201527f7265737300000000000000000000000000000000000000000000000000000000602082015250565b6000611339602483610dff565b9150611344826112dd565b604082019050919050565b600060208201905081810360008301526113688161132c565b9050919050565b7f45524332303a20617070726f766520746f20746865207a65726f20616464726560008201527f7373000000000000000000000000000000000000000000000000000000000000602082015250565b60006113cb602283610dff565b91506113d68261136f565b604082019050919050565b600060208201905081810360008301526113fa816113be565b9050919050565b7f45524332303a20696e73756666696369656e7420616c6c6f77616e6365000000600082015250565b6000611437601d83610dff565b915061144282611401565b602082019050919050565b600060208201905081810360008301526114668161142a565b9050919050565b7f45524332303a207472616e736665722066726f6d20746865207a65726f20616460008201527f6472657373000000000000000000000000000000000000000000000000000000602082015250565b60006114c9602583610dff565b91506114d48261146d565b604082019050919050565b600060208201905081810360008301526114f8816114bc565b9050919050565b7f45524332303a207472616e7366657220746f20746865207a65726f206164647260008201527f6573730000000000000000000000000000000000000000000000000000000000602082015250565b600061155b602383610dff565b9150611566826114ff565b604082019050919050565b6000602082019050818103600083015261158a8161154e565b9050919050565b7f45524332303a207472616e7366657220616d6f756e742065786365656473206260008201527f616c616e63650000000000000000000000000000000000000000000000000000602082015250565b60006115ed602683610dff565b91506115f882611591565b604082019050919050565b6000602082019050818103600083015261161c816115e0565b9050919050565b7f45524332303a206d696e7420746f20746865207a65726f206164647265737300600082015250565b6000611659601f83610dff565b915061166482611623565b602082019050919050565b600060208201905081810360008301526116888161164c565b905091905056fea26469706673582212207033e32b20ee8337a83e61effebeca754735df41e5133085036393879bfe198664736f6c634300080d0033",
  "linkReferences": {},
  "deployedLinkReferences": {}
}